:020000040800F2
:100000000068002085020008795F0008754000083C
:10001000FD590008CD0A0008A17400080000000086
:10002000000000000000000000000000C501000802
:10003000631F00080000000021020008FB670008A1
:100040009F0200089F0200089F0200089F0200080C
:100050009F0200089F0200089F0200089F020008FC
:100060009F0200089F0200089F020008CD1D0008A3
:10007000E91D0008F91D0008091E0008191E0008E6
:100080009F020008291E00089F0200089F02000826
:100090009F0200089F0200089F0200089F020008BC
:1000A0009F0200089F0200089F0200089F020008AC
:1000B0009F0200089F0200089F0200089F0200089C
:1000C0009F0200089F0200089F0200089F0200088C
:1000D0009F020008257400089F0200089F02000884
:1000E0009F0200089F0200089F0200089F0200086C
:1000F0009F0200089F0200089F0200089F0200085C
:100100009F0200089F0200089F0200089F0200084B
:10011000196B00089F020008E16800089F020008B0
:100120009F0200089F020008391E00089F02000875
:100130009F0200089F0200089F0200089F0200081B
:100140009F0200089F0200089F0200089F0200080B
:10015000491E00089F0200089F0200089F02000835
:100160009F0200089F0200089F0200089F020008EB
:100170009F0200089F0200089F0200080000000084
:100180009F0200089F020008296B0008196C0008F4
:100190009F0200089F0200089F0200089F020008BB
:1001A00000000000000000009F020008DFF810D0EF
:1001B00000F032FC0048004705A80008AFF30080BB
:1001C000006800202C4B19680868B0E8F04F80F3F5
:1001D0000988BFF36F8F4FF0000080F311887047DC
:1001E0000000000008480068006880F308884FF0AD
:1001F000000080F3148862B661B6BFF34F8FBFF37F
:100200006F8F00DF00BF00BF08ED00E0DFF80C00DB
:10021000016841F470010160704700BF88ED00E0A3
:10022000EFF30980BFF36F8F134B1A681EF0100FA6
:1002300008BF20ED108A20E9F04F106009B44FF09C
:10024000500080F31188BFF34F8FBFF36F8F0BF017
:1002500087FF4FF0000080F3118809BC1968086817
:10026000B0E8F04F1EF0100F08BFB0EC108A80F31A
:100270000988BFF36F8F70472C000020EFF30580D3
:10028000704700000648804706480047FEE7FEE743
:10029000FEE7FEE7FEE7FEE7FEE7FEE7FEE7FEE736
:1002A000CD680008AD0100082DE9F05F054600208B
:1002B00092469B4688460646814640241BE02846D7
:1002C00041464746224600F060FA53465A46C01A55
:1002D000914110D311461846224600F047FA2D1AD4
:1002E00067EB01084F4622460120002100F03EFA4C
:1002F00017EB00094E41201EA4F10104DFDC484643
:1003000031462A464346BDE8F09F40EA01039B0779
:1003100003D009E008C9121F08C0042AFAD203E07A
:1003200011F8013B00F8013B521EF9D27047D2B2DE
:1003300001E000F8012B491EFBD270470022F6E7CE
:1003400010B513460A4604461946FFF7F0FF20464B
:1003500010BD2DE9FE4F804681EA0300C00F0C4618
:10036000009021F0004123F00045B8EB0200A941C4
:1003700005D24046214690461C460B46024623F0D5
:100380000040104347D0270DC7F30A00C3F30A51BA
:100390000290401A019040286BDAC3F3130040F436
:1003A000801B0098924620B10023D2EB030A63EB36
:1003B0000B0B01985946C0F14002504600F0D6F9A7
:1003C00006460D4650465946019A00F0EEF910EBEC
:1003D00008006141002487EA115284EAE7731A4356
:1003E00040D0009A62B3019A012A4FEA075215DC05
:1003F000001B61EB02014FF0004202EA0752CDE917
:100400000042001C41F5801132462B4600F04EFAA6
:1004100003B0BDE8F08F40462146F9E7001B61EBD1
:100420000201001C41F5801300185B412018A2F561
:10043000001747EB030140EAD570B6196D4111E092
:100440006D084FEA360645EAC0754FEA0752001BB1
:1004500061EB0201001C41F5801149084FEA3000B0
:100460000019514132462B4603B0BDE8F04F00F071
:100470000EBA0098012240000023D0EB020263EB89
:10048000E073009821464FEAE074B8EB000061EB9E
:100490000401E9E783F000435BE781F0004158E79E
:1004A0002DE9FE4F81EA030404F0004421F00041ED
:1004B00000944FF0000B23F0004350EA01045ED09B
:1004C00052EA03045BD0C3F30A54C1F30A552C4427
:1004D000A4F2F3340194A0FB0254C1F3130141F4DC
:1004E0008011C3F3130343F4801301FB024400FBA8
:1004F000034E840A970A44EA815447EA8357A4FBCF
:10050000076802958D0A05FB07854FEA932C04FBCB
:100510000C542705029D4FEA065847EA1637B5EBFB
:1005200008056EEB070C870E920E47EA811742EA28
:100530008312A7FB0201B6EB0B0164EB00042B0D49
:1005400043EA0C335E1844EB1C50DA465146E7FB95
:100550000201C5F313044FEA0B3343EA14534FEA85
:100560000432019C43EA0603A4F10C040294009CAB
:10057000CDE900B400F09AF903B0BDE8F08F002097
:100580000146F9E72DE9F04D81EA030404F0004B40
:1005900021F0004514464FF0000A23F0004150EAD4
:1005A000050220D054EA01021DD0C5F30A570246C5
:1005B000C5F31303C1F31300C1F30A5640F48015C9
:1005C00043F48013A7EB0608101BD64608F2FD384B
:1005D00073EB050002D308F1010801E092185B41BA
:1005E000B8F1000F03DA00200146BDE8F08D0020CD
:1005F0004FF48011064684460EE0171B73EB050787
:1006000005D3121B63EB050306434CEA010C4908B2
:100610004FEA300092185B4150EA0107EDD152EAEF
:10062000030012D082EA040083EA0501084305D0E2
:10063000101BAB4106D20122002306E000224FF03E
:10064000004302E06FF0010253101AEB06004CEB7E
:10065000085110EB0A0041EB0B01BDE8F04D00F032
:1006600016B90EB5C10F80EAE0700844CA07002130
:1006700040F233438DE80E000A460B4600F016F9AF
:1006800003B000BD0EB540F2334102910021CDE927
:1006900000110A460B4600F009F903B000BD70B521
:1006A000C1F30A5201F000450024C1F3130140F2E6
:1006B000FF3341F480119A4201DA002070BD40F20C
:1006C00033439A42A2F2334203DC524200F05DF817
:1006D00000E090402C43F1D0404270BD00F0004259
:1006E00030F000400AD0C10D01F56071C0F3160072
:1006F00042EA0151C20840071143704700200146F9
:100700007047000030B5041E71F1000404DB4FF0A7
:100710000044404264EB0101141E73F1000405DB48
:100720001C464FF00043524263EB0403994208BF5A
:10073000904230BD01F0004330B421F0004150EA56
:10074000010206D00A0DA2F56072C1F31301002A5E
:1007500002DC30BC00207047440F44EAC104C100F1
:10076000E01830BC00EBC25000F031B8202A04DBA6
:10077000203A00FA02F1002070479140C2F12003B4
:1007800020FA03F3194390407047202A04DB203AF3
:1007900021FA02F00021704721FA02F3D040C2F1A1
:1007A00020029140084319467047202A06DBCB17E8
:1007B000203A41FA02F043EAE07306E041FA02F31C
:1007C000D040C2F1200291400843194670470029E9
:1007D000A8BF7047401C490008BF20F001007047C7
:1007E00010B4B0FA80FC00FA0CF050EA010404BF27
:1007F00010BC704749B1CCF1200421FA04F411FA7D
:100800000CF118BF012121430843A3EB0C01CB1DC0
:100810004FEA00614FEA102042BF002010BC704731
:1008200000EBC35010440029A4BF10BC7047401C0B
:10083000490008BF20F0010010BC7047F0B400F080
:10084000004221F0004120F00040CE0DC30DC1F365
:10085000160141F40001C0F316004C42154640F465
:100860000000761E09E010EB440002D582F0004241
:1008700040428842F7D840005B1EB342F9DA18B113
:10088000F0BC0021FFF7ACBF2846F0BC704710B5A4
:10089000141E73F1000408DA401C41F100019218A3
:1008A0005B411A4301D120F0010010BD2DE9F04D4C
:1008B00092469B4611B1B1FA81F202E0B0FA80F2A1
:1008C00020329046FFF752FF04460F4640EA0A00E6
:1008D00041EA0B0153465A46084313D0114653EAE6
:1008E000010019D0C8F140025046FFF74EFF0546FF
:1008F0000E46504659464246FFF738FF084305D09A
:10090000012004E020463946BDE8F08D0020054373
:1009100046EAE0762C4337430A986305E40AA0EBE5
:1009200008000022FD0A44EA47540A3002D500209C
:100930000146E9E7010510196941DDE9084500199B
:100940006941BDE8F04DA2E770B521F000430343D3
:100950000CD0C1F30A550024D5EB040564EB040365
:10096000D617AD1AB34102DB0020014670BD201836
:1009700041EB025170BD2DE9F04D00231A461B1AC0
:100980008A4103DB00200146BDE8F08DC1F30A5225
:10099000C1F3130141F480154FF0000BD10702D1D0
:1009A00000186D41521E0027044640F2FF113846E0
:1009B00001EB620A3E468046024600204FF4801159
:1009C000FFF7E3FEC2197141BB1846EB0100B4EB1F
:1009D000030C75EB000C04D3E41A65EB0005174615
:1009E0000E46241908F101006D4180463428E3DDEC
:1009F000F91946EB0600091BA84103D24FF0FF325C
:100A0000134601E0002213461BEB070046EB0A5198
:100A1000BDE8F04DFFF73BBF064C074D06E0E06830
:100A200040F0010394E8070098471034AC42F6D335
:100A3000FFF7C0FB8CD60008ACD6000870B58C1848
:100A400010F8015B15F0070301D110F8013B2A11E2
:100A500006D110F8012B03E010F8016B01F8016BCF
:100A60005B1EF9D12B0705D40023521E0DD401F8CB
:100A7000013BFAE710F8013BCB1A921C03E013F894
:100A8000015B01F8015B521EF9D5A142D8D30020C9
:100A900070BD000010E0094803F06AFB08480078C8
:100AA00030B108480078012802D1044809F030FA32
:100AB000032105480BF08CF9EDE700005861002098
:100AC0007D060020AC0000205806002000BFFEE795
:100AD00070B506460D4614460F2E0BD1484890EDD2
:100AE000000A484880ED000A474890ED000A474850
:100AF00080ED000A002E44D1207820B3B5F906001D
:100B0000B0F5C86F1FDD00200EE09FED410A41499E
:100B100001EB801181ED0C0A9FED3F0A3D4901EB8D
:100B2000801181ED0D0A401C0828EEDB344890ED61
:100B3000000A344880ED000A334890ED000A33483B
:100B400080ED000A5BE0B5F90600B0F57A7F56DA71
:100B50002078002853D000200EE09FED300A2D4968
:100B600001EB801181ED0C0A9FED2D0A294901EB63
:100B7000801181ED0D0A401C0828EEDB002020705A
:100B80003DE00D2E3BD12078E0B9B5F90600B0F577
:100B9000C86F17DD00200EE09FED220A1D4901EB12
:100BA000801181ED0C0A9FED1C0A1A4901EB80119E
:100BB00081ED0D0A401C0828EEDB9FED1B0A00F0BA
:100BC000CBFA1CE0B5F90600B0F57A7F17DA207889
:100BD000A8B900200EE09FED110A0E4901EB80112B
:100BE00081ED0C0A9FED0E0A0A4901EB801181ED9F
:100BF0000D0A401C0828EEDB2078401C207070BDD8
:100C00006C06002060060020700600205C060020B4
:100C10003333B33ED05300208FC2F53C6666C63FE7
:100C20007F6ABC3C9A99193E0000204300200AE0EC
:100C3000064901EB801181ED0C0A044901EB80119A
:100C4000C1ED0D0A401C0828F2DB7047D05300208C
:100C500010B502460023002004E0145C1C44E3B2FB
:100C6000441CE0B28842F8DBD843401CC0B210BD3F
:100C700010B588B0044601F001FD00EE100AB8EE90
:100C8000400ADFEDFD0A80EE201AFC4880ED001AD4
:100C9000062C75D006DC012C73D0042C07D0052C53
:100CA00070D101E1072C6ED00D2CF9D105E2F4488A
:100CB0000078012868D1F34890ED010AF248D0EDA0
:100CC000000A30EE600AEF4880ED010A90ED0A0A52
:100CD000ED48D0ED000A30EE600AEA4880ED0A0ADD
:100CE00090ED130AE848D0ED000A30EE200AE548FE
:100CF00080ED130A90ED1C0AE348D0ED000A30EEB7
:100D0000200AE04880ED1C0A90ED010AF3EE000A8B
:100D1000B4EEE00AF1EE10FA04DDB3EE000A80ED65
:100D2000010A0FE0D74890ED010AFBEE000AB4EE8D
:100D3000E00AF1EE10FA04D2BBEE000A80ED010ADF
:100D400000E000BFCF4890ED0A0AF3EE000AB4EECF
:100D5000E00AF1EE10FA04DDB3EE000A80ED0A0AB3
:100D600014E0C84890ED0A0AFBEE000AB4EEE00A6F
:100D7000F1EE10FA09D2BBEE000A80ED0A0A05E096
:100D800093E069E0C1E161E13EE000BFBD4890ED64
:100D9000130AF3EE000AB4EEE00AF1EE10FA04DDF5
:100DA000B3EE000A80ED130A0FE0B64890ED130A87
:100DB000FBEE000AB4EEE00AF1EE10FA04D2BBEE4C
:100DC000000A80ED130A00E000BFAE4890ED1C0A57
:100DD000F3EE000AB4EEE00AF1EE10FA04DDB3EE31
:100DE000000A80ED1C0A0FE0A64890ED1C0AFBEEFD
:100DF000000AB4EEE00AF1EE10FA04D2BBEE000AEB
:100E000080ED1C0A00E000BF6946DFEDA00A9D48A6
:100E10009A4A92ED000A00F0C9FE02A9DFED9C0A91
:100E200098482430954A92ED000A00F0BFFE04A9CC
:100E3000DFED970A93484830904A92ED000A00F09F
:100E4000B5FE06A9DFED910A8E486C308B4A92ED13
:100E5000000A00F0ABFE59E16946DFED8C0A8948D3
:100E6000864A92ED000A00F0A1FE02A9DFED880A91
:100E700084482430814A92ED000A00F097FE04A9CC
:100E8000DFED830A7F4848307C4A92ED000A00F08B
:100E90008DFE06A9DFED7D0A7A486C30774A92ED27
:100EA000000A00F083FE31E100BF75480078012898
:100EB00074D1744890ED010A7348D0ED000A30EE09
:100EC000600A704880ED010A90ED0A0A6E48D0ED84
:100ED000000A30EE600A6B4880ED0A0A90ED130AB2
:100EE0006948D0ED000A30EE200A664880ED130A0A
:100EF00090ED1C0A6448D0ED000A30EE200A6148EB
:100F000080ED1C0A90ED010AF3EE000AB4EEE00A4F
:100F1000F1EE10FA04DDB3EE000A80ED010A0FE0F5
:100F2000584890ED010AFBEE000AB4EEE00AF1EE3B
:100F300010FA04D2BBEE000A80ED010A00E000BF07
:100F4000504890ED0A0AF3EE000AB4EEE00AF1EE22
:100F500010FA04DDB3EE000A80ED0A0A0FE04948FA
:100F600090ED0A0AFBEE000AB4EEE00AF1EE10FA88
:100F700004D2BBEE000A80ED0A0A00E000BF41483F
:100F800090ED130AF3EE000AB4EEE00AF1EE10FA67
:100F900005DDB3EE000A80ED130A10E02EE03948BB
:100FA00090ED130AFBEE000AB4EEE00AF1EE10FA3F
:100FB00004D2BBEE000A80ED130A00E000BF314806
:100FC00090ED1C0AF3EE000AB4EEE00AF1EE10FA1E
:100FD00004DDB3EE000A80ED1C0A0FE0294890ED15
:100FE0001C0AFBEE000AB4EEE00AF1EE10FA04D29D
:100FF000BBEE000A80ED1C0A00E000BF6946DFED91
:10100000230A20481D4A92ED000A00F0CFFD02A9F4
:10101000DFED1F0A1B482430184A92ED000A00F049
:10102000C5FD04A9DFED1A0A16484830134A92EDAF
:10103000000A00F0BBFD06A9DFED140A11486C3070
:101040000E4A92ED000A00F0B1FD5FE06946DFED67
:101050000F0A0C48094A92ED000A00F0A7FD02A908
:10106000DFED0B0A07482430044A92ED000A00F035
:101070009DFD04A90EE0000000007A4484060020D3
:1010800004060020A8600020240600200AD7233C84
:101090005C8F023F5FED020A2B482C4A92ED000A5A
:1010A00000F084FD06A95FED070A27482430274A8F
:1010B00092ED000A00F07AFD28E069465FED0D0A26
:1010C00021484838214A92ED000A00F06FFD02A93C
:1010D0005FED110A1C4824381C4A92ED000A00F00A
:1010E00065FD04A95FED160A1748184A92ED000A3B
:1010F00000F05CFD06A95FED1B0A13482430134A7B
:1011000092ED000A00F052FD00BF00BF00BF0020BA
:1011100015E0694601EBC00191ED000A0C4901EBB5
:10112000800181ED000A694601EBC00191ED010AE1
:10113000084901EB800181ED000A411CC8B2042876
:10114000E7DB08B010BD0000F0600020840600203E
:1011500094610020A4610020DFED1E0AB4EEE00AD5
:10116000F1EE10FA00D27047DFED1B0AB4EEE00A90
:10117000F1EE10FA00DDF6E7DFED180A70EEC00AB6
:10118000B0EE600AF0EE000A80EE201AB0EE410ADE
:10119000DFED130A60EE200A9FED121AC0EE811AED
:1011A0001148D0ED000A71EEA00A1048C0ED000A07
:1011B000DFED0B0A60EE200A9FED0A1AC0EE811ADD
:1011C0000B48D0ED000A71EEA00A0A48C0ED000AF3
:1011D00000BFC8E7000070420000B443000048436D
:1011E000D00F494000003443700600205C06002008
:1011F0006C0600206006002010B5044609480078FF
:1012000068B109480078A0420AD00AF08DFC06486F
:1012100004700120054908700AF0B0FC00E010BD20
:1012200000BFFCE77D060020F4050020FC0500203F
:1012300070B52DED048B04460E461546B6F9000038
:10124000A0F5806000EE100AB8EEC00ADFEDDA0A01
:1012500080EE201AB0EE419AB6F90200A0F5806047
:1012600000EE100AB8EEC00ADFEDD30A80EE201AB5
:10127000F0EE419AB6F90400A0F5806000EE100A85
:10128000B8EEC00ADFEDCC0A80EE201AB0EE418A3B
:10129000B6F90600A0F5806000EE100AB8EEC00AAC
:1012A000DFEDC50A80EE201AF0EE418A052D09D047
:1012B000042D07D0012D05D0062D03D0072D01D018
:1012C0000D2D78D1B6F90000B0F5806F74D1B6F964
:1012D0000200B0F5806FF9D138EE880ADFEDB70A69
:1012E00020EE200A84ED010A38EE880ADFEDB30A09
:1012F00020EE200A84ED0A0A38EEC80ADFEDAF0AB4
:1013000020EE200A84ED130A38EEC80ADFEDAB0A9E
:1013100020EE200A84ED1C0A94ED060A78EE880A75
:1013200020EE200A84ED010A94ED0F0A78EE880A77
:1013300020EE200A84ED0A0A94ED180A78EEC80A15
:1013400020EE200A84ED130A94ED210A78EEC80AF3
:1013500020EE200A84ED1C0A94ED010AD4ED060A61
:10136000B4EEE00AF1EE10FA04DD94ED060A84ED25
:10137000010A12E094ED010AD4ED060AF1EE600ACA
:10138000B4EEE00AF1EE10FA06D294ED060AB1EEE0
:10139000400A84ED010A00E000BF94ED0A0AD4ED92
:1013A000060AB4EEE00AF1EE10FA06DD94ED060A44
:1013B00084ED0A0A14E0F9E054E094ED0A0AD4ED51
:1013C000060AF1EE600AB4EEE00AF1EE10FA06D277
:1013D00094ED060AB1EE400A84ED0A0A00E000BF6F
:1013E00094ED130AD4ED060AB4EEE00AF1EE10FA19
:1013F00004DD94ED060A84ED130A12E094ED130A5D
:10140000D4ED060AF1EE600AB4EEE00AF1EE10FA4D
:1014100006D294ED060AB1EE400A84ED130A00E00C
:1014200000BF94ED1C0AD4ED060AB4EEE00AF1EE1A
:1014300010FA04DD94ED060A84ED1C0AB6E094ED82
:101440001C0AD4ED060AF1EE600AB4EEE00AF1EEF1
:1014500010FA06D294ED060AB1EE400A84ED1C0A99
:10146000A4E0A3E0B6EE000A84ED050AB6EE000A99
:1014700084ED0E0AB6EE000A84ED170AB6EE000AF5
:1014800084ED200A39EE890AF1EE000A20EE200AE6
:1014900084ED010A39EE890AF1EE000A20EE200AF5
:1014A00084ED0A0A39EEC90AF1EE000A20EE200A9C
:1014B00084ED130A39EEC90AF1EE000A20EE200A83
:1014C00084ED1C0A94ED010AF1EE000AB4EEE00A84
:1014D000F1EE10FA04DDB1EE000A84ED010A0EE02F
:1014E00094ED010AF9EE000AB4EEE00AF1EE10FA0A
:1014F00004D2B9EE000A84ED010A00E000BF94EDC9
:101500000A0AF1EE000AB4EEE00AF1EE10FA04DD88
:10151000B1EE000A84ED0A0A0EE094ED0A0AF9EE33
:10152000000AB4EEE00AF1EE10FA04D2B9EE000AB5
:1015300084ED0A0A00E000BF94ED130AF1EE000A00
:10154000B4EEE00AF1EE10FA04DDB1EE000A84ED2B
:10155000130A0EE094ED130AF9EE000AB4EEE00A65
:10156000F1EE10FA04D2B9EE000A84ED130A00E09D
:1015700000BF94ED1C0AF1EE000AB4EEE00AF1EEB1
:1015800010FA04DDB1EE000A84ED1C0A0EE094EDC1
:101590001C0AF9EE000AB4EEE00AF1EE10FA04D2E9
:1015A000B9EE000A84ED1C0A00E000BF2846FFF7F0
:1015B00023FEBDEC048B70BD000025440000844177
:1015C00030B52DED068B89B005460024002006902D
:1015D0000790089001E0601CC4B2285D552801D036
:1015E0000B2CF8DB0B2C03DB09B0BDEC068B30BDFC
:1015F000281901680691416807910189ADF820100A
:10160000807A8DF822006CB1002000BF07E0295CD1
:10161000C4F10B02024406AB9954411CC8B2A0426B
:10162000F5DB00BF9DF81800552872D19DF8190010
:10163000512804D052286ED0532869D1BDE0DDF87E
:101640001A000490DDF81E000590BDF91000FFF7A8
:1016500008F841EC1A0B9FED840B53EC102BFEF7AE
:1016600091FF41EC190B9FED820B53EC102BFEF711
:1016700017FF41EC180B9FED800B53EC102BFEF77E
:101680000FFF41EC100B7E4880ED000BBDF91200FE
:10169000FEF7E7FF41EC1A0B9FED730B53EC102B99
:1016A000FEF770FF41EC190B9FED710B53EC102B03
:1016B000FEF7F6FE41EC180B9FED6F0B53EC102B71
:1016C000FEF7EEFE41EC100B6D4880ED020BBDF90C
:1016D0001400FEF7C6FF41EC1A0B9FED630B53ECB1
:1016E000102BFEF74FFF41EC190B9FED610B53ECF4
:1016F000102BFEF7D5FE41EC180B9FED5F0B53EC62
:10170000102BFEF7CDFE41EC100B5D4880ED040B75
:10171000A5E0A6E0FFE7DDF81A000290DDF81E0064
:101720000390BDF90800FEF79CFF41EC190B9FEDFB
:10173000550B53EC102BFEF7B3FE41EC180B9FED4D
:101740004A0B53EC102BFEF71DFF41EC100B4F48DA
:1017500080ED000BBDF90A00FEF783FF41EC190B89
:101760009FED480B53EC102BFEF79AFE41EC180B43
:101770009FED3D0B53EC102BFEF704FF41EC100BDB
:10178000424880ED020BBDF90C00FEF76AFF41EC08
:10179000190B9FED3C0B53EC102BFEF781FE41EC37
:1017A000180B9FED310B53EC102BFEF7EBFE41ECC9
:1017B000100B364880ED040B51E0DDF81A00009064
:1017C000DDF81E000190BDF90000FEF74AFF41EC74
:1017D000190B9FED2F0B53EC102BFEF761FE41EC24
:1017E000180B9FED210B53EC102BFEF7CBFE41ECB9
:1017F000100B294880ED000BBDF90200FEF731FF08
:1018000041EC190B9FED220B53EC102BFEF748FE19
:1018100041EC180B9FED140B53EC102BFEF7B2FEAE
:1018200041EC100B1C4880ED020BBDF90400FEF7E3
:1018300018FF41EC190B9FED160B53EC102BFEF724
:101840002FFE41EC180B9FED080B53EC102BFEF70D
:1018500099FE41EC100B104880ED040B00BF00BF57
:1018600000BF00BFC0E60000000000000000E04034
:1018700000000000000030409A99999999992340FE
:10188000E85E00200000000000409F40005F002054
:101890000000000000806640185F002070B505461B
:1018A0000C46B4F90000B0F5806F29D1B4F90200FC
:1018B000B0F5806F24D1B4F90400B0F5806F1FD16A
:1018C000B4F90600B0F5806F1AD1052009F0A2F92D
:1018D000B4F90000B0F5806F11D1B4F90200B0F591
:1018E000806F0CD1B4F90400B0F5806F07D1B4F962
:1018F0000600B0F5806F02D10820FFF77DFC70BDB7
:101900009A4800789A490978884214D0984806780D
:101910004FF4FA7009F07EF99448007894490978F8
:10192000884207D092480078B04203D190480078AE
:101930008E49087000BFB4F90800B0F5C86F09DD22
:101940008C4890ED020A8C4880ED000A01208B49FA
:10195000087007E0B4F90800B0F5C87F02DA00208B
:10196000864908700AF0E0F88048007822283BD0C9
:1019700008DC11280FD0122816D0132820D02128D7
:1019800079D126E023283AD0312877D0322874D074
:101990003328F5D1BFE001207949087004F098FDA3
:1019A0000820FFF729FCDBE00120754908700020C2
:1019B00074490870042221462846FFF739FCCFE01D
:1019C00000206F490870042221462846FFF730FCAA
:1019D000C6E000206A4908706A490870042221465E
:1019E0002846FFF725FCBBE00020654908706549E3
:1019F0000870052221462846FFF71AFCB0E00120B6
:101A00005F490870B4F90200B0F5C86F08DDB4F999
:101A10000600B0F5C86F03DD0B20FFF7EDFB29E0F2
:101A2000B4F90200B0F5C87F08DAB4F90600B0F5E1
:101A3000C87F03DA0A20FFF7DFFB1BE0B4F90200DE
:101A4000B0F5C86F08DDB4F90600B0F5C87F03DA59
:101A50000E20FFF7D1FB0DE0B4F9000040F2DC519D
:101A6000884207DDB4F90400B0F5FA7F02DA1120EC
:101A7000FFF7C2FB74E072E000E05FE00020404945
:101A80000870B4F90000B0F5C86F11DDDFED3E0A53
:101A90009FED3E0AFFF7CAF802203A4908709FED11
:101AA0003C0A3C4880ED000A01203B49087028E0D0
:101AB000B4F90000B0F5B97F11DADFED330A9FED1C
:101AC000330AFFF7B3F801202E4908709FED300A62
:101AD000324880ED000A01202F49087011E0B4F966
:101AE0000200B0F57A7F0CDA2B480078012808D183
:101AF000DFED2B0A9FED2B0AFFF798F8022026490D
:101B0000087025480078022804D10622214628467C
:101B1000FFF78EFB24E000201A490870224A214674
:101B2000FEF7D6FF0120164908701F48007820B93B
:101B3000072221462846FFF77BFB11E000201149D0
:101B40000870194A21460D20FEF7C2FF164800789A
:101B500020B10D2221462846FFF76AFB00E000BFB6
:101B600000BF0AF00BF800BFC9E600001506002010
:101B7000DA000020586100205406002004060020EE
:101B8000AC0000207C0600200AD7A33D3333B33ECF
:101B9000F266DFBE740600200506002078060020ED
:101BA0007F6ABC3C6666C63F1406002070B52DED0A
:101BB000088BF0EE408A0446B0EE609A0D4694ED34
:101BC000010AB5EEC00AF1EE10FA04D294ED010A52
:101BD000B1EE400A01E094ED010AB0EE408A75488A
:101BE000007801280BD073480078022807D071488C
:101BF0000078032803D06F480078042807D184EDCB
:101C0000089A6C480078401C6A49087002E000207D
:101C10006849087094ED080AD4ED050A94ED071A96
:101C200038EEC11A00EE810A84ED080AC4ED078A75
:101C3000D4ED080AB0EE600AF7EE000A06F084FC64
:101C400084ED080A94ED080AD4ED040AB4EEE00A23
:101C5000F1EE10FA68D8F0EE000A88EE200A94ED52
:101C6000081AD4ED041AC1EE210A10EE880A85ED97
:101C7000000A94ED080ADFED500A20EE200AD4EDA8
:101C8000040A80EE201AF0EE419AB0EE690A07F0DD
:101C90003FFBD4ED000A94ED021AB1EE411A41EE79
:101CA000000AC5ED010A95ED000A20EE000AD5ED07
:101CB000010A95ED011A00EE810A10EE101A08468D
:101CC000FEF70CFD41EC1B0B9FED3C1BB0EE4B0AED
:101CD000F0EE6B0A06F090FCB0EE40AAF0EE60AABF
:101CE00051EC1A0BFEF726FD3649486095ED010AC6
:101CF000D5ED000A80EE201A11EE106A3046FEF78C
:101D0000EDFC41EC1B0BB0EE4B0AF0EE6B0A06F05B
:101D1000A3F9B0EE40AAF0EE60AA51EC1A0BFEF760
:101D200009FD284908602EE094ED080AD4ED040A64
:101D300030EE600AD4ED040AB7EE001A71EE600AC4
:101D400080EE201AF0EE419AF0EE000A88EE200AAA
:101D5000F1EE690A00EE880A85ED000ADFED160A49
:101D600069EEA00AB0EE600A07F0D2FAD4ED000ADC
:101D700094ED031A41EE000AB7EE000A80EE801AD5
:101D800085ED011A00BF94ED010AB5EEC00AF1EE2F
:101D900010FA09D295ED000AB1EE400A85ED000A6D
:101DA00001200949087002E0002007490870BDECD5
:101DB000088B70BDFC050020DB0F494000000000CF
:101DC0000000E03FAC060020F505002010B50448F7
:101DD00000F054F92020034981F83D0010BD0000B7
:101DE00094090020D007002010B5024800F046F901
:101DF00010BD00003409002010B5024800F03EF983
:101E000010BD00001408002010B5024800F036F99B
:101E100010BD0000D408002010B5024800F02EF9D3
:101E200010BD00007408002010B5024800F026F92B
:101E300010BD0000F409002010B5024800F01EF9A2
:101E400010BD0000540A002010B5024800F016F939
:101E500010BD0000540A00200146087810381823ED
:101E6000B0FBF3F20848805CC865032A05D908680E
:101E70006FF30900001D886503E008686FF309002F
:101E80008865886D7047000064D000080146002016
:101E90008A6A8B69CBB932B1012A0DD0022A03D0EC
:101EA000032A10D10EE000BFCB6A03F08073B3F1B8
:101EB000807F00D1012007E0CB6AB3F1C07F00D161
:101EC000012001E000E000BF34E08B69B3F5005F62
:101ED0001AD132B1012A07D0022A03D0032A11D124
:101EE0000AE000BF01200EE0CB6A03F08073B3F17B
:101EF000807F00D1012006E0CB6AB3F1C07F00D122
:101F0000012000E000BF15E032B1012A05D0022A0D
:101F100004D0032A0CD103E000BF00BF012008E079
:101F2000CB6A03F08073B3F1807F00D1012000E021
:101F300000BF00BF704730B50468246824F48024D3
:101F400005682C60046863608468402C04D10468D0
:101F5000A2600468E16003E00468A1600468E260D4
:101F600030BD704772B600BFFEE700000184012259
:101F70004284DFED0B0AC0ED090ADFED090AC0ED6E
:101F80000A0ADFED080A60EE200AC0ED0B0AD0ED68
:101F90000C0AC0ED0C0AD0ED0D0AC0ED0D0A704719
:101FA000000000005C8FCA4070B50446A56D00F0CB
:101FB00065FB064694F83500022808D0802060654D
:101FC00000BF002084F8340000BF012070BD2068ED
:101FD000006820F01600216808602068406920F041
:101FE000800021684861206C08B9A06C28B1206885
:101FF000006820F00800216808602068006820F070
:1020000001002168086010E000F038FB801B052803
:102010000BD920206065032084F8350000BF002024
:1020200084F8340000BF0320D0E72068006800F087
:1020300001000028E8D194F85C103F208840A86097
:10204000012084F8350000BF002084F8340000BF70
:1020500000BFBBE7014691F83500022803D080207D
:10206000486501207047052081F835000868006840
:1020700020F001000A6810600020F3E7F8B504467C
:10208000002000908C4800684FF41651B0FBF1F727
:10209000A56D2E6894F85C1008208840304098B1F7
:1020A0002068006800F0040070B12068006820F02B
:1020B00004002168086094F85C1008208840A8603B
:1020C000606D40F00100606594F85C10012088406C
:1020D000304068B12068406900F0800040B194F859
:1020E0005C1001208840A860606D40F002006065CF
:1020F00094F85C1004208840304068B12068006883
:1021000000F0020040B194F85C1004208840A86000
:10211000606D40F00400606594F85C101020884009
:10212000304078B32068006800F0080050B394F89D
:102130005C1010208840A8602068006800F48020AF
:1021400080B12068006800F4002028B9206CC8B174
:102150002046216C884715E0A06C98B12046A16C00
:1021600088470FE02068006800F4807028B9206874
:10217000006820F0080021680860206C10B120463B
:10218000216C884794F85C1020208840304000285B
:1021900065D02068006800F0100000285FD094F837
:1021A0005C1020208840A86094F83500052828D1CC
:1021B0002068006820F016002168086020684069E7
:1021C00020F0800021684861206C08B9A06C28B11B
:1021D0002068006820F008002168086094F85C100E
:1021E0003F208840A860012084F8350000BF00200F
:1021F00084F8340000BF206D10B12046216D88475F
:10220000F8BD2068006800F4802080B12068006874
:1022100000F4002028B9606C10B12046616C88473A
:102220001DE0E06BD8B12046E16B884717E02068DD
:10223000006800F4807068B92068006820F0100021
:1022400021680860012084F8350000BF002084F870
:10225000340000BFE06B10B12046E16B8847606D31
:1022600038B3606D00F00100F0B1052084F835004E
:102270002068006820F001002168086000BF009815
:10228000401C0090B84200D905E02068006800F0CA
:1022900001000028F3D100BF012084F8350000BF01
:1022A000002084F8340000BFE06C10B12046E16CDF
:1022B000884700BFA4E70000280000202DE9F04176
:1022C0000446002500F0DAF9074614B90120BDE8FC
:1022D000F081606A00B100BF022084F8350000BFC1
:1022E000002084F8340000BF2068006820F001005E
:1022F000216808600AE000F0C1F9C01B052805D973
:1023000020206065032084F83500E0E7206800683D
:1023100000F001000028EED1206805682148054042
:10232000D4E901010843E168084321690843616970
:102330000843A1690843E1690843216A084305434A
:10234000606A042803D1D4E90B01084305432068DF
:1023500005602068456925F00705606A0543606AE5
:1023600004280DD1A06A0543E06A48B12046FFF772
:102370008DFD28B140206065012084F83500A6E776
:10238000206845612046FFF767FD064694F85C101B
:102390003F208840B06000206065012084F835004F
:1023A000002094E73F8010F02DE9F04704460D46E9
:1023B00016461F464FF00008D4F8589000BF94F816
:1023C0003400012802D10220BDE8F087012084F802
:1023D000340000BF94F83500012825D1022084F88C
:1023E0003500002060653B46324629462046FFF70F
:1023F000A2FD94F85C103F208840C9F808002068CE
:10240000006840F0160021680860206C28B1206840
:10241000006840F00800216808602068006840F00B
:1024200001002168086006E000BF002084F8340045
:1024300000BF4FF002084046C6E7000070B50446F2
:1024400000F01CF906462546681C10B104480078C7
:10245000054400BF00F012F9801BA842FAD370BDFA
:1024600024000020F8B502460B4600250024002079
:102470000021DFE0012606FA01F51E6806EA0504E0
:10248000AC4274D11E7906F00306012E04D01E79E9
:1024900006F00306022E13D190684F000326BE40BB
:1024A000B0434F00DE68BE40304390605068012664
:1024B0008E40B0431E79C6F300168E403043506004
:1024C0001E7906F00306032E09D0D0684F000326BC
:1024D000BE40B0434F009E68BE403043D0601E797E
:1024E00006F00306022E13D1CF0802F1200656F89B
:1024F00027004E07F70E0F26BE40B0434F07FF0ED2
:102500001E69BE403043CF0802F1200646F827007E
:1025100010684F000326BE40B0431E7906F0030644
:102520004F00BE40304310605E6806F44036002E17
:102530007FD000BF00260096404E366846F48046A5
:102540003E4F3E603E46366806F48046009600BF29
:1025500000BF3B4E8F0856F827008E07370F0F2617
:10256000BE40B043374EB24202D100262EE060E0BA
:10257000354EB24201D1012628E0344EB24201D19B
:10258000022623E0324EB24201D103261EE0314E34
:10259000B24201D1042619E02F4EB24201D10526E4
:1025A00014E02E4EB24201D106260FE02C4EB2426C
:1025B00001D107260AE02B4EB24201D1082605E0E0
:1025C000294EB24201D1092600E00A268F073F0FAB
:1025D000BE4030431A4E8F0846F82700234E30681D
:1025E000A0435E6806F4803606B120431F4E30607B
:1025F000361D3068A0435E6806F4003606B12043FD
:102600001A4E361D3060361D3068A0435E6806F4F1
:10261000801606B12043154E08363060361D3068EE
:10262000A0435E6806F4001606B120430F4E0C3638
:102630003060491C1029FFF41DAFF8BD443802403A
:102640000838014000000240000402400008024037
:10265000000C02400010024000140240001802402A
:10266000001C02400020024000240240003C0140C7
:102670000AB1816101E00B04836170470148006881
:10268000704700001C0000200348006803490978D7
:1026900008440149086070471C0000202400002005
:1026A00010B50D48006840F400700B4908600846FA
:1026B000006840F4806008600846006840F480705C
:1026C0000860032000F0C8F80F2000F007F800F0C1
:1026D0004BF8002010BD0000003C024070B588B0EF
:1026E00004460025002600222146362000F076F818
:1026F000362000F063F800BF002001901648006803
:1027000040F01000144908600846006800F010000E
:10271000019000BF00BF02A903A800F0B9F900F0C2
:10272000DFF945000D48B5FBF0F0461E0C480D4999
:10273000086040F2E7310B48C1604660002101614A
:10274000816000F095FC20B9064800F0C5FC08B097
:1027500070BD0120FBE700004038024040420F00FE
:1027600000100040B40A002008B500BF002000900F
:102770001148006840F480400F490860084600682E
:1027800000F48040009000BF00BF00BF0020009018
:10279000081F006840F08050091F08600846006864
:1027A00000F08050009000BF00BF00220F21901E5B
:1027B00000F014F808BD0000443802400146084605
:1027C000002809DB00F01F0301229A4043099B0007
:1027D00003F1E023C3F8002100BF70472DE9F05F4B
:1027E00080460D461646002704F096FF07463946F8
:1027F0002A46334601F00700C0F1070ABAF1040F78
:1028000002D94FF0040A01E0C0F1070AD14600F1F5
:10281000040ABAF1070F02D24FF0000A01E0A0F15A
:10282000030AD4464FF0010A0AFA09FAAAF1010A8A
:102830000AEA020A0AFA0CFA4FF0010B0BFA0CFB37
:10284000ABF1010B0BEA030B4AEA0B0421464046AD
:1028500004F06AFFBDE8F09F00BF00F00702064BDE
:1028600019684FF6FF031940044B0B4343EA02215A
:10287000014B196000BF70470CED00E00000FA0545
:1028800038B5002400BF002000901D48006840F0CB
:1028900080501B4908600846006800F08050009096
:1028A00000BF00BF012017490864FFF7E7FE044698
:1028B00007E0FFF7E3FE001BB0F57A7F01D90320A4
:1028C00038BD1148406800F48030B0F5803FF0D149
:1028D00001200C494864FFF7D1FE044607E0FFF7EA
:1028E000CDFE001BB0F57A7F01D90320E8E706484A
:1028F000406800F40030B0F5003FF0D10020DFE781
:102900004038024000000E420070004070B504469E
:102910000D460CB9012070BD5848006800F00F004A
:10292000A84209D255490D700846006800F00F0012
:10293000A84201D00120EEE7207800F00200022832
:102940001DD1207800F00400042805D14C4800680F
:1029500040F4E0504A490860207800F00800082858
:1029600005D14748006840F4604045490860444844
:10297000006820F0F000A168084341490860207811
:1029800000F00100A8B36068012807D13C4808386E
:102990000068C0F34040B8B90120BCE76068022875
:1029A00002D06068032807D1354808380068C0F3B2
:1029B000406048B90120AEE7314808380068C0F3EC
:1029C000400008B90120A6E72D48006820F0030068
:1029D000616808432A490860FFF750FE064609E08F
:1029E000FFF74CFE801B41F28831884202D9032058
:1029F00091E707E02248006800F00C006168B0EB46
:102A0000810FEDD11D48006800F00F00A84209D9E0
:102A10001A490D700846006800F00F00A84201D066
:102A2000012078E7207800F00400042807D114483A
:102A3000006820F4E050E1680843114908602078FC
:102A400000F00800082808D10D48006820F4604014
:102A5000216940EAC1000A49086000F061F80849AC
:102A60000968C1F30311074A515CC8400649086070
:102A700006480068FFF732FE00204CE7003C0240A9
:102A8000083802406CD000082800002020000020F8
:102A90000F2202600D4A126802F0030242600B4AE4
:102AA000126802F0F0028260084A126802F4E052F2
:102AB000C260064A126802F46042D2080261044A07
:102AC000126802F00F020A607047000008380240E6
:102AD000003C0240014800687047000028000020C8
:102AE00000B5FFF7F7FF04490968C1F38221034AE3
:102AF000515CC84000BD0000083802407CD000088E
:102B000000B5FFF7E7FF04490968C1F34231034A02
:102B1000515CC84000BD0000083802407CD000086D
:102B20002DE9F047002400250026A146254800682D
:102B300000F00C0020B1042805D008283AD105E0A7
:102B4000DFF8849039E0DFF8849036E01D48001FFC
:102B5000006800F03F041B48001F006800F480007C
:102B600078B11A481749091F0968C1F38811A0FBF9
:102B700001700146224600233846FDF795FB0546C5
:102B80000EE011480F49091F0968C1F38811A0FB25
:102B900001700146224600233846FDF785FB0546B5
:102BA0000848001F0068C0F30140401C4600B5FB08
:102BB000F6F902E0DFF8109000BF00BF4846BDE81C
:102BC000F0870000083802400024F400001BB70022
:102BD000F8B504460CB90120F8BD207800F00100DA
:102BE000002874D0F948006800F00C0004280DD0CB
:102BF000F648006800F00C00082813D1F348001FC5
:102C0000006800F48000B0F5800F0BD1EF48083861
:102C10000068C0F34040002859D06068002856D1B1
:102C20000120D9E700BF6068B0F5803F08D1E748D0
:102C30000838006840F48030E449083908601EE034
:102C40006068B0F5A02F0DD1E0480838006840F466
:102C50008020DE49083908600846006840F480306A
:102C600008600CE0D9480838006820F48030D74963
:102C7000083908600846006820F48020086000BF1A
:102C8000606890B1FFF7FAFC054606E0FFF7F6FC36
:102C9000401B642801D903209EE7CC48083800680F
:102CA000C0F340400028F1D011E0FFF7E7FC0546F3
:102CB00006E0FFF7E3FC401B642801D903208BE703
:102CC000C24808380068C0F340400028F1D120789D
:102CD00000F0020002285FD1BC48006800F00C0040
:102CE00058B1BA48006800F00C0008281CD1B74859
:102CF000001F006800F48000B0B9B44808380068CC
:102D0000C0F3400020B1E068012801D0012063E752
:102D1000AE480838006820F0F800216940EAC10098
:102D2000AA490839086037E0E06800B30120A849E3
:102D30000860FFF7A3FC054606E0FFF79FFC401B79
:102D4000022801D9032047E7A04808380068C0F3EB
:102D500040000028F1D09D480838006820F0F800B5
:102D6000216940EAC10099490839086014E000204F
:102D700097490860FFF782FC054606E0FFF77EFCF6
:102D8000401B022801D9032026E790480838006834
:102D9000C0F340000028F1D1207800F00800082896
:102DA0002CD16069A8B101208A490860FFF766FC50
:102DB000054606E0FFF762FC401B022801D903200C
:102DC0000AE782486C300068C0F340000028F1D068
:102DD00014E000207F490860FFF750FC054606E03C
:102DE000FFF74CFC401B022801D90320F4E677488A
:102DF0006C300068C0F340000028F1D1207800F06A
:102E00000400042870D1002770483830006800F0B2
:102E1000805090B900BF002000906C4838300068A6
:102E200040F080506949383108600846006800F079
:102E30008050009000BF00BF01276748006800F481
:102E40008070B0B96448006840F4807062490860DE
:102E5000FFF714FC054606E0FFF710FC401B0228B4
:102E600001D90320B8E65C48006800F480700028AF
:102E7000F2D000BFA068012808D15448683000682B
:102E800040F001005149683108601DE0A068052844
:102E90000DD14E486830006840F004004B4968315D
:102EA00008600846006840F0010008600CE04748F0
:102EB0006830006820F00100444968310860084625
:102EC000006820F00400086000BFA068A8B1FFF708
:102ED000D5FB054609E0FFF7D1FB401B41F28831E5
:102EE000884202D9032077E626E038486830006837
:102EF000C0F340000028EED013E0FFF7BFFB05460B
:102F000008E0FFF7BBFB401B41F28831884201D942
:102F1000032061E62D4868300068C0F340000028B7
:102F2000EFD1012F07D129483830006820F08050B8
:102F300026493831086000BFA069002845D02348E1
:102F4000006800F00C0008285DD0A069022845D177
:102F500000201F490866FFF791FB054606E0FFF7D2
:102F60008DFB401B022801D9032035E6174808389D
:102F70000068C0F340600028F1D1D4E9070108439C
:102F8000616A40EA81110122A06AC2EB500041EA65
:102F900000412C20005D41EA00600C49091F0860D7
:102FA00001200B490866FFF769FB054606E0FFF7BD
:102FB00065FB401B022801D903200DE603480838B1
:102FC0000068C0F340600028F1D049E008380240B2
:102FD00000004742800E4742007000400020214917
:102FE0000866FFF74BFB054606E0FFF747FB401B73
:102FF000022801D90320EFE51B480068C0F34060B8
:103000000028F2D12CE0A069012800D1E4E516489F
:10301000001D0668A069012820D006F48001E0693F
:1030200081421BD106F03F01206A814216D147F64A
:10303000C0703040616AB0EB811F0FD106F440319F
:103040000122A06AC2EB5000B1EB004F06D106F09E
:1030500070612C20005DB1EB006F01D00120BBE559
:103060000020B9E500004742003802407047704731
:1030700010B504460CB9012010BD94F83D0028B9E4
:10308000002084F83C00204600F025F8022084F857
:103090003D00211D206803F02BFC012084F8460030
:1030A00000BF84F83E0001213F200155402001551A
:1030B0004120015500BF00BF012084F84200432099
:1030C0000155442001554520015500BF012084F8D9
:1030D0003D000020D0E77047014691F83D000128EF
:1030E00001D001207047022081F83D000868C068C7
:1030F00040F001000B68D8601A4B086898421BD05A
:103100000868B0F1804F17D0174B0868984213D069
:10311000164B086898420FD0154B086898420BD0A0
:10312000144B0868984207D0134B0868984203D0A4
:10313000124B086898420CD10868806800F00702BA
:10314000062A0CD00868006840F001000B6818607F
:1031500005E00868006840F001000B681860002076
:10316000C0E70000000001400004004000080040EB
:10317000000C0040000401400040014000180040E5
:10318000704710B5044620680069C0F34000D8B10C
:103190002068C068C0F34000B0B16FF00200216841
:1031A0000861012020772068806900F0030018B1D1
:1031B0002046FFF7E5FF05E0204600F0ADF8204689
:1031C00000F0ABF80020207720680069C0F3800091
:1031D000D8B12068C068C0F38000B0B16FF00400BF
:1031E00021680861022020772068806900F440701F
:1031F00018B12046FFF7C4FF05E0204600F08CF828
:10320000204600F08AF80020207720680069C0F38B
:10321000C000D8B12068C068C0F3C000B0B16FF082
:10322000080021680861042020772068C06900F048
:10323000030018B12046FFF7A3FF05E0204600F089
:103240006BF8204600F069F80020207720680069BC
:10325000C0F30010D8B12068C068C0F30010B0B14E
:103260006FF0100021680861082020772068C0698D
:1032700000F4407018B12046FFF782FF05E02046B9
:1032800000F04AF8204600F048F800202077206837
:10329000006900F0010058B12068C06800F001002A
:1032A00030B16FF0010021680861204600F036F867
:1032B00020680069C0F3C01058B12068C068C0F32E
:1032C000C01030B16FF08000216808612046FFF720
:1032D000CDFE20680069C0F3801058B12068C06836
:1032E000C0F3801030B16FF04000216808612046C3
:1032F00000F020F820680069C0F3401058B1206841
:10330000C068C0F3401030B16FF020002168086140
:103310002046FFF7ACFE10BD7047704710B504465D
:1033200003492068884201D1FFF7AEF910BD0000C3
:103330000010004070472DE9F84F04460F469046B4
:103340001D46DDF828A094F83E0020287CD117B156
:10335000B8F1000F02D10120BDE8F88F00BF94F84A
:103360003C00012801D10220F6E7012084F83C004E
:1033700000BF00202064222084F83E00012020634A
:10338000FFF77CF98346A4F82C80A4F82E80A0686F
:10339000B0F5805F04D1206910B90026B94602E07B
:1033A0003E464FF0000900BF002084F83C0000BFFB
:1033B000288052E02068006800F01000102811D129
:1033C00000BF0020009020680068009020684068DE
:1033D000009000BF00BF288820B1202084F83E0064
:1033E0000020B9E72068006800F02000202821D1E3
:1033F00046B920684068C0F30800A9F8000009F148
:10340000020911E0A068B0F5805F03D0A06828B978
:10341000206918B920684068307004E0206840686E
:1034200000F07F003070761C2888401C2880E08DDA
:10343000401EE0850AF1010078B1FFF71FF9A0EB0B
:103440000B00504504D800E013E0BAF1000F04D19E
:10345000202084F83E0003207EE7E08D0028A9D1DB
:10346000A08DE18D401A2880202084F83E000020A5
:1034700072E7022070E7704770B5044600252068A7
:103480004069C0F3C01594F83D00212817D1B5B1AB
:1034900000BF00BF2168143151E8001F21F08000F7
:1034A0002168143141E80002002AF3D100BF606BAB
:1034B00010B1606BFEF778FD204603F0EAFC20684F
:1034C0004069C0F3801594F83E00222817D1B5B1A9
:1034D00000BF00BF2168143151E8001F21F04000F7
:1034E0002168143141E80002002AF3D100BFA06B2B
:1034F00010B1A06BFEF758FD204603F084FC0020BD
:1035000070BD70472DE9F84F0446206805682068B3
:10351000C668206847694FF00009CA4605F00F09E0
:10352000B9F1000F0AD105F0200038B106F02000F3
:1035300020B1204603F0C0FCBDE8F88FB9F1000FC0
:103540007CD007F0010018B906F49070002875D0FF
:1035500005F0010030B106F4807018B1206C40F025
:103560000100206405F0040030B107F0010018B13B
:10357000206C40F00200206405F0020030B107F03A
:10358000010018B1206C40F00400206405F0080030
:1035900048B106F0200010B907F0010018B1206C06
:1035A00040F008002064206C002846D005F0200080
:1035B00028B106F0200010B1204603F07DFC206801
:1035C0004069C0F3801A206C00F0080010B9BAF10D
:1035D000000F2DD0204603F016FC2068406900F053
:1035E0004000402820D100BF00BF2168143151E8BD
:1035F000001F21F040002168143141E80002002A38
:10360000F3D100BFA06B50B17548A16B0865A06BEA
:10361000FEF720FD88B1A06B016D88470DE02046C4
:10362000FFF76FFF09E009E02046FFF76AFF04E0BB
:103630002046FFF766FF002020647DE7206B01280D
:1036400076D105F01000002872D006F01000002896
:10365000FAD000BF00200090206800680090206829
:103660004068009000BF00BF2068406900F0400043
:1036700040285ED1A06B006840681FFA80F8B8F15E
:10368000000F54D0A08D404551DDA4F82E80A06BD2
:10369000C069B0F5807F43D000BF00BF21680C3106
:1036A00051E8001F21F4807021680C3141E80002CC
:1036B000002AF3D100BF00BF00BF2168143151E8D8
:1036C000001F21F001002168143141E80002002AA6
:1036D000F3D100BF00BF00BF2168143151E8001FC3
:1036E00021F040002168143141E80002002AF3D1A2
:1036F00000BF202084F83E000020206300BF00BFF0
:1037000021680C3151E8001F21F0100021680C31B4
:1037100041E80002002AF3D100BFA06BFEF744FC91
:10372000A08DE28D801A81B22046FFF7A4FE03E748
:1037300040E0A08DE18D401A1FFA80F8E08DC0B303
:10374000B8F1000F35D000BF00BF21680C3151E83F
:10375000001F21F4907021680C3141E80002002A1A
:10376000F3D100BF00BF00BF2168143151E8001F32
:1037700021F001002168143141E80002002AF3D150
:1037800000BF202084F83E000020206300BF00BF5F
:1037900021680C3151E8001F21F0100021680C3124
:1037A00041E80002002AF3D100BF41462046FFF75E
:1037B00062FEC1E605F0800030B106F0800018B16D
:1037C000204603F071FDB7E605F0400030B106F089
:1037D000400018B1204603F04CFBADE600BFABE65D
:1037E0006D6C000810B504460CB9012010BDA0692D
:1037F00000B100E000BF94F83D0028B9002084F833
:103800003C00204600F028F8242084F83D00206881
:10381000C06820F400502168C860204603F0C8FB4F
:103820002068006920F490402168086120684069A0
:1038300020F02A00216848612068C06840F40050E8
:103840002168C86000202064202084F83D0084F8AE
:103850003E000020CAE7000010B586B004461421DF
:1038600001A8FCF76BFDFE49206888427BD100BFB0
:1038700000200090FB48006840F08040F949086053
:103880000846006800F08040009000BF00BF00BF05
:1038900000200090F3481038006840F01000F14913
:1038A000103908600846006800F01000009000BF62
:1038B00000BF4FF4C07001900220029000200390DE
:1038C000032004900820059001A9E748FEF7CAFDEF
:1038D000E648E74908604FF0206048600021E4486E
:1038E0008160C1604FF480610161002141618161AB
:1038F000C1614FF44031016200214162FEF7DEFCFC
:1039000008B1FEF72FFB00BFD948A063846300BF56
:10391000D6483038D7490860800548604021D548EE
:1039200081600021C1604FF480610161002141612B
:103930008161C1614FF44031016200214162FEF7B3
:10394000BDFC08B1FEF70EFB00BFCA48606384638C
:1039500000BF002205215220FEF740FF5220FEF753
:103960002DFFDCE1FFE7C449206888427BD100BF1E
:1039700000200090BB48006840F40020B94908606E
:103980000846006800F40020009000BF00BF00BFA0
:1039900000200090B3481038006840F00100B149A1
:1039A000103908600846006800F00100009000BF70
:1039B00000BF03200190022002900020039003200A
:1039C00004900820059001A9AC48FEF74BFDA748DC
:1039D0001838AB490860400548600021A84881605C
:1039E000C1604FF480610161002141618161C16169
:1039F0004FF44031016200214162FEF75FFC08B1E3
:103A0000FEF7B0FA00BF9E48A063846300BF9748EA
:103A100018309C4908604FF0006048604021994888
:103A200081600021C1604FF480610161002141612A
:103A30008161C1614FF44031016200214162FEF7B2
:103A40003DFC08B1FEF78EFA00BF8E4860638463C8
:103A500000BF002205213420FEF7C0FE3420FEF70F
:103A6000ADFE5CE1FFE77E49206888427BD100BF64
:103A7000002000907B48006840F080407949086051
:103A80000846006800F08040009000BF00BF00BF03
:103A90000020009073481038006840F01000714911
:103AA000103908600846006800F01000009000BF60
:103AB00000BF4FF4C07001900220029000200390DC
:103AC000032004900820059001A96748FEF7CAFC6E
:103AD0006648674908604FF02060486000216448EC
:103AE0008160C1604FF480610161002141618161A9
:103AF000C1614FF44031016200214162FEF7DEFBFB
:103B000008B1FEF72FFA00BF5948A063846300BFD5
:103B1000564830385749086080054860402155486C
:103B200081600021C1604FF4806101610021416129
:103B30008161C1614FF44031016200214162FEF7B1
:103B4000BDFB08B1FEF70EFA00BF4A48606384630C
:103B500000BF002205215220FEF740FE5220FEF752
:103B60002DFEDCE0FFE748492068884250D100BFC5
:103B7000002000903B48001D006840F010003949CB
:103B8000091D08600846006800F01000009000BFA2
:103B900000BF00BF0020009032481038006840F09D
:103BA00002003049103908600846006800F0020041
:103BB000009000BF00BF00BF0020009008460068D2
:103BC00040F0010008600846006800F00100009025
:103BD00000BF00BF802001900220029000200390CF
:103BE000032004900720059001A92848FEF73AFC1D
:103BF0004FF40070019002200290002003900320F7
:103C000004900720059001A91C48FEF72BFC86E0D4
:103C10001F49206888424ED100BF00200090114803
:103C2000001D006840F020000E49091D086008468C
:103C3000006800F02000009000BF00BF00BF00201F
:103C4000009008481038006840F0400005491039DD
:103C500008600846006800F04000009000BF19E0CE
:103C60000078004040380240001002405860024096
:103C7000D408002034090020004C0040000002401D
:103C800014080020740800200010014000040240C5
:103C90000014014000BF4FF48440019002200290C4
:103CA00000200390032004900820059001A91D48DE
:103CB000FEF7D8FB33E01C49206888422FD100BFB3
:103CC000002000901948006840F000401749086043
:103CD0000846006800F00040009000BF00BF00BF31
:103CE0000020009011481038006840F010000F4983
:103CF000103908600846006800F01000009000BF0E
:103D000000BF0320019002200290002003900320B6
:103D100004900820059001A90548FEF7A3FB06B012
:103D200010BD000000180240007C004040380240F6
:103D3000001002402DE9F84F04460E4617469946FA
:103D40004FF0000A94F83E0020285FD106B117B961
:103D50000120BDE8F88F00BF94F83C00012801D194
:103D60000220F6E7012084F83C0000BF0020206418
:103D7000222084F83E0000202063FEF77FFC82466C
:103D8000A785E785A068B0F5805F04D1206910B9E8
:103D90000025B04602E035464FF0000800BF002085
:103DA00084F83C0000BF29E0534600222021204631
:103DB000CDF8009003F0A8FA08B10320C9E745B98F
:103DC00020684068C0F30800A8F8000008F1020865
:103DD00011E0A068B0F5805F03D0A06828B9206921
:103DE00018B920684068287004E02068406800F036
:103DF0007F0028706D1CE08D401EE085E08D00285E
:103E0000D2D1202084F83E000020A2E70220A0E7C3
:103E100070B504460D46164694F83E00202816D18B
:103E200005B10EB9012070BD00BF94F83C00012817
:103E300001D10220F7E7012084F83C0000BF0020F8
:103E4000206332462946204603F0C8F9EBE70220FA
:103E5000E9E7000010B504461B48844207D1FFF78C
:103E60000BFB122219491848FFF7D2FF2AE0184825
:103E700084420AD1FFF700FB164801F037FB0B2202
:103E800015491348FFF7C4FF1CE0144884420CD1C5
:103E9000FFF7F2FA124803F085FB03F00FFB06224E
:103EA00010490E48FFF7B4FF0CE00F48844209D1D7
:103EB000FFF7E2FA0D48FDF783FB0B220B490A4896
:103EC000FFF7A6FF10BD000048070020305F00206C
:103ED000C00600205C5F0020685F0020040700200F
:103EE000765F0020E9000020D0070020D85E002087
:103EF00070472DE9F84F04460E46174699464FF095
:103F0000000A94F83D0020285AD106B117B90120C3
:103F1000BDE8F88F00BF94F83C00012801D10220D1
:103F2000F6E7012084F83C0000BF00202064212037
:103F300084F83D00FEF7A2FB8246A784E784A068D0
:103F4000B0F5805F04D1206910B90025B04602E0C9
:103F500035464FF0000800BF002084F83C0000BF49
:103F60001BE05346002280212046CDF8009003F04C
:103F7000CBF908B10320CBE745B9B8F80000C0F38E
:103F800008002168486008F1020803E028782168E9
:103F900048606D1CE08C401EE084E08C0028E0D17D
:103FA0005346002240212046CDF8009003F0ACF9A2
:103FB00008B10320ACE7202084F83D000020A7E7EB
:103FC0000220A5E7F7B50446154694F83D002028E1
:103FD00046D1019800B10DB90120FEBD00BF94F893
:103FE0003C00012801D10220F7E7012084F83C00C1
:103FF00000BF01982062A584E58400202064212070
:1040000084F83D001748616BC8631748616B08640A
:104010001648616BC8640020616B086501AE2368B7
:104020001A1D31682B46606BFEF7BEF96FF0400039
:104030002168086000BF002084F83C0000BF00BF7A
:1040400000BF2168143151E8001F41F08000216851
:10405000143141E80002002AF3D100BF0020BCE780
:104060000220BAE7A16D0008F96D0008816C000814
:104070007047704700BFFEE7DFED0A0AB4EEE00AC2
:10408000F1EE10FA05D8B5EEC00AF1EE10FA00DB39
:104090007047FFEE000A60EE200AB0EE600A00BF33
:1040A000F6E7000000003443B5EEC00AF1EE10FA66
:1040B00007D8DFED080AB4EEE00AF1EE10FA00DBF3
:1040C0007047FFEE000A60EE200AB0EE600A00BF03
:1040D000F6E70000000034C310B502F0A5FD64202F
:1040E000FEF7ACF91B4800F06DF89620FEF7A6F934
:1040F000194800F067F89620FEF7A0F9174800F07D
:1041000061F89620FEF79AF9154800F05BF89620C2
:10411000FEF794F9114800F055F89620FEF78EF955
:10412000104800F04FF89620FEF788F90E4800F08E
:1041300049F89620FEF782F90C4800F043F89620E3
:10414000FEF77CF9054800F03DF84FF47A70FEF771
:1041500075F910BDCB000020C1000020B700002081
:10416000AD000020B2000020D0000020D5000020CB
:1041700010B50446124890ED001BB0EE410AF0EE77
:10418000610A51EC100BFCF7D5FA20600C4890ED59
:10419000021BB0EE410AF0EE610A51EC100BFCF785
:1041A000C9FA6060064890ED041BB0EE410AF0EEDB
:1041B000610A51EC100BFCF7BDFAA06010BD0000C5
:1041C000185F002010B50446052221460148FFF77C
:1041D000F9FE10BDD007002000B52DED108B89B081
:1041E0009FEDFD0AB0EE40AA9FEDFC0AF0EE40AA5A
:1041F0009FEDFB0AB0EE40BAB6EE000AF0EE40BA10
:104200009FEDF80AB0EE408AF74800780A2877D187
:1042100013E12022F54901A8FCF777F8FEF72EFA02
:1042200000EE100AF8EE400A9FEDF11A80EE810AC6
:10423000F048D0ED000A9FEDEE1AC0EE811A30EE84
:10424000610AB0EE408A9FEDE40AB4EEC08AF1EE56
:1042500010FA16D200200EE0B0EE0C0AE64901EB8F
:10426000801181ED0C0A9FEDE50AE34901EB801115
:1042700081ED0D0A401C0828EEDB01A801F09AFE32
:10428000DAE09FEDD50AB4EEC08AF1EE10FA38DB21
:10429000B7EE000AB4EEC08AF1EE10FA31D2002077
:1042A00015E09FEDD70A01A901EBC00181ED000ADD
:1042B000D44981ED010ABBEE0E0A01A901EBC00150
:1042C00081ED010ACF4981ED000A411CC8B20428E2
:1042D000E7DB00200EE09FEDCC0AC74901EB80111F
:1042E00081ED0C0A9FEDC90AC34901EB801181EDF4
:1042F0000D0A401C0828EEDB01A801F05BFE9BE0E4
:10430000BAE0B7EE000AB4EEC08AF1EE10FA37DB7D
:104310009FEDBF0AB4EEC08AF1EE10FA30D2002051
:1043200015E0B3EE000A01A901EBC00181ED000A1E
:10433000B44981ED010ABAEE0E0A01A901EBC001F0
:1043400081ED010AAF4981ED000A411CC8B2042881
:10435000E7DB00200EE0B6EE000AA74901EB801172
:1043600081ED0C0A9FEDA90AA34901EB801181EDB3
:104370000D0A401C0828EEDB01A801F01BFE5BE0E3
:104380009FEDA30AB4EEC08AF1EE10FA37DD9FED7F
:10439000A10AB4EEC08AF1EE10FA30D2002015E086
:1043A000B3EE000A01A901EBC00181ED000A9549B5
:1043B00081ED010A9FED8B0A01A901EBC00181ED9E
:1043C000010A904981ED000A411CC8B20428E7DBCC
:1043D00000200EE0B7EE000A874901EB801181ED65
:1043E0000C0A9FED8D0A844901EB801181ED0D0AC5
:1043F000401C0828EEDB01A801F0DCFD1CE09FED6D
:10440000850AB4EEC08AF1EE10FA15DD0820FCF73B
:10441000F3FE00200EE09FED810A774901EB801149
:1044200081ED0C0A9FED790A734901EB801181ED52
:104430000D0A401C0828EEDB00BF9FED760AB4EEA3
:10444000C08AF1EE10FA7FF6E4AEC82006F0E2FB77
:1044500000200EE09FED720A674901EB801181EDAB
:104460000C0A9FED700A644901EB801181ED0D0A81
:10447000401C0828EEDB98E35B4800780B2870D1DD
:10448000B7EE080AF0EE408A9FED670AB0EE409A58
:104490009FED660AF0EE409AB5EE000AB0EE40CA13
:1044A0009FED630AF0EE40CAC6E120224F49203159
:1044B00001A8FBF72AFFFEF7E1F800EE100AF8EE7C
:1044C000400A9FED4B1A80EE810A4A48D0ED000A5F
:1044D0009FED471AC0EE811A30EE610AB0EE408AB5
:1044E000B7EE080AB4EEC08AF1EE10FA16D2002038
:1044F0000EE0B7EE000A404901EB801181ED0C0A95
:104500009FED4C0A3C4901EB801181ED0D0A401CE6
:104510000828EEDB01A801F04DFD8CE1B7EE080A9A
:10452000B4EEC08AF1EE10FA45DB9FED430AB4EE1B
:10453000C08AF1EE10FA3ED2002023E0012801D01B
:1045400003280FD19FED3D0A01A901EBC00181EDC8
:10455000000ABBEE090A01A901EBC00181ED010AC5
:104560000EE07BE19FED350A01A901EBC00181ED71
:10457000000A9FED330A01A901EBC00181ED010A98
:10458000411CC8B20428D9DB00200EE09FED2D0AA3
:10459000194901EB801181ED0C0A9FED2B0A164998
:1045A00001EB801181ED0D0A401C0828EEDB01A80B
:1045B00001F000FD3FE19FED200AB4EEC08AF1EE6C
:1045C00010FA7DDB9FED210AB4EEC08AF1EE10FAFD
:1045D0007CD200205FE00000CDCC4C3FCDCC4C3EE7
:1045E0009A99993E00000000F4050020A4D200082A
:1045F00000007A44A4060020D0530020295C0F3E1E
:1046000000000C42AC060020333373408FC2F53DEE
:104610006666A63F6666E63FEC51B83D9A99D93F7B
:104620006666C63F7F6ABC3C0AD7A33E0AD7233ED4
:104630006666663FCDCCCC3D52B8DE3F00002642D8
:1046400000000CC2666626419A99193EA370FD3F90
:10465000012801D003280ED19FEDFD0A01A901EB2D
:10466000C00181ED000A9FEDFB0A01A901EBC00129
:1046700081ED010A0DE0B3EE040A01A901EBC001CE
:1046800081ED000A9FEDF40A01A901EBC00181ED63
:10469000010A411CC8B20428DADB00200EE0B2EEA9
:1046A000040AEE4901EB801181ED0C0A1FED1F0A8F
:1046B000EA4901EB801181ED0D0A401C082800E059
:1046C00004E0ECDB01A801F075FCB4E01FED210A69
:1046D000B4EEC08AF1EE10FA44DB9FEDE10AB4EECD
:1046E000C08AF1EE10FA3DD2002022E0012801D06C
:1046F00003280ED1B3EE0E0A01A901EBC00181ED32
:10470000000AB3EE090A01A901EBC00181ED010A1B
:104710000DE0B3EE0B0A01A901EBC00181ED000A27
:104720001FED490A01A901EBC00181ED010A411CFD
:10473000C8B20428DADB00200EE0B5EE000AC74953
:1047400001EB801181ED0C0A9FEDC60AC34901EB14
:10475000801181ED0D0A401C0828EEDB01A801F054
:1047600029FC68E09FEDBE0AB4EEC08AF1EE10FAB3
:1047700044DD9FEDBD0AB4EEC08AF1EE10FA3DD2E1
:10478000002022E0012801D003280ED19FEDB00ABD
:1047900001A901EBC00181ED000AB2EE040A01A9F2
:1047A00001EBC00181ED010A0DE0B3EE090A01A998
:1047B00001EBC00181ED000AB2EE040A01A901EB90
:1047C000C00181ED010A411CC8B20428DADB0020D7
:1047D0000EE01FED7D0AA14901EB801181ED0C0A6D
:1047E0001FED700A9D4901EB801181ED0D0A401CFF
:1047F0000828EEDB01A801F0DDFB1CE09FED9A0A22
:10480000B4EEC08AF1EE10FA15DD0820FCF7F4FCD6
:1048100000200EE0B7EE000A904901EB801181ED17
:104820000C0A9FED920A8D4901EB801181ED0D0A72
:10483000401C0828EEDB00BF9FED8B0AB4EEC08A57
:10484000F1EE10FA7FF631AEC82006F0E3F95FED25
:104850008B0A1FED8D0AFCF7E9F90CE68448007815
:1048600011286FD1B7EE080AF0EE408A1FEDA50AB5
:10487000B0EE409A1FEDA60AF0EE409A1FED940AA2
:10488000B0EE40CAB6EE000AF0EE40CA7CE120224B
:10489000784901A8FBF739FDFDF7F0FE00EE100A9C
:1048A000F8EE400A1FEDAE1A80EE810A7248D0ED94
:1048B000000A1FEDB11AC0EE811A30EE610AB0EEA7
:1048C000408AB7EE080AB4EEC08AF1EE10FA16D2AA
:1048D00000200EE0B7EE000A604901EB801181ED87
:1048E0000C0A1FEDAC0A5D4901EB801181ED0D0A48
:1048F000401C0828EEDB01A801F05CFB43E1B7EEA9
:10490000080AB4EEC08AF1EE10FA45DB1FEDBD0ACD
:10491000B4EEC08AF1EE10FA3ED2002023E0012866
:1049200001D003280FD11FEDBB0A01A901EBC00183
:1049300081ED000ABBEE090A01A901EBC00181ED7E
:10494000010A0EE032E11FEDC30A01A901EBC0012B
:1049500081ED000A1FEDC60A01A901EBC00181ED3E
:10496000010A411CC8B20428D9DB00200EE09FEDEB
:10497000430A3A4901EB801181ED0C0A1FEDD30A7D
:10498000364901EB801181ED0D0A401C0828EEDB51
:1049900001A801F00FFBF6E01FEDE00AB4EEC08ABB
:1049A000F1EE10FA44DBB0EE000AB4EEC08AF1EE8C
:1049B00010FA3DD2002022E0012801D003280ED1B8
:1049C0009FED2F0A01A901EBC00181ED000A1FED47
:1049D000F40A01A901EBC00181ED010A0DE0B2EE7C
:1049E0000E0A01A901EBC00181ED000ABBEE040A29
:1049F00001A901EBC00181ED010A411CC8B20428E4
:104A0000DADB00200EE09FED1D0A144901EB801156
:104A100081ED0C0A1FEDF90A104901EB801181EDBF
:104A20000D0A401C0828EEDB01A801F0C3FAAAE039
:104A3000B0EE000AB4EEC08AF1EE10FA4DDB9FED45
:104A4000110AB4EEC08AF1EE10FA46D200202BE033
:104A50000000CC4100002042000020C2D0530020C2
:104A600052B80E40F4FD543CEB514840CDCC4C3D87
:104A7000F4050020E4D20008A4060020CDCCCC40F0
:104A80000000844199993940B3EE000A01A901EB75
:104A9000C00181ED000AB9EE040A01A901EBC001D1
:104AA00081ED010A411CC8B20428EDDB00200EE0B4
:104AB000B5EE000AFE4901EB801181ED0C0A1FEDF5
:104AC000170AFB4901EB801181ED0D0A401C0828F3
:104AD000EEDB01A801F06EFA55E01FED160AB4EE08
:104AE000C08AF1EE10FA31DD9FEDF20AB4EEC08A11
:104AF000F1EE10FA2AD200200FE0B3EE010A01A96C
:104B000001EBC00181ED000AB8EE000A01A901EB3A
:104B1000C00181ED010A411CC8B20428EDDB002070
:104B20000EE09FEDE50AE24901EB801181ED0C0AF0
:104B30009FEDE20ADE4901EB801181ED0D0A401C78
:104B40000828EEDB01A801F035FA1CE09FEDD90A38
:104B5000B4EEC08AF1EE10FA15DD0820FCF74CFB2C
:104B600000200EE0B7EE000AD14901EB801181ED83
:104B70000C0A1FED420ACE4901EB801181ED0D0AAE
:104B8000401C0828EEDB00BF9FEDCA0AB4EEC08AC5
:104B9000F1EE10FA7FF67BAEC82006F03BF8DFEDB1
:104BA000C70A9FEDC70AFCF741F8FDE3C548007846
:104BB0000C2870D19FEDC40AB0EE409A9FEDC30A55
:104BC000F0EE409A9FEDBC0AB0EE40CAB6EE000A85
:104BD000F0EE40CA9FEDBE0AF0EE408A01E12022CD
:104BE000BC4901A8FBF791FBFDF748FD00EE100A58
:104BF000F8EE400A9FEDB81A80EE810AB748D0ED72
:104C0000000A9FEDB51AC0EE811A30EE610AF0EE8F
:104C1000408A9FEDAD0AF4EEC08AF1EE10FA16D28A
:104C200000200EE0B0EE080AA14901EB801181EDF1
:104C30000C0A9FEDA60A9E4901EB801181ED0D0A39
:104C4000401C0828EEDB01A801F0B4F9C8E09FED94
:104C50009E0AF4EEC08AF1EE10FA32DBB7EE000ADB
:104C6000F4EEC08AF1EE10FA2BD200200FE09FED97
:104C70009C0A01A901EBC00181ED000ABBEE070A05
:104C800001A901EBC00181ED010A411CC8B2042851
:104C9000EDDB00200FE0C3E09FED920A844901EBB9
:104CA000801181ED0C0A9FED900A814901EB801182
:104CB00081ED0D0A401C0828EEDB01A801F07AF90D
:104CC0008EE0B7EE000AF4EEC08AF1EE10FA31DBA6
:104CD0009FED860AF4EEC08AF1EE10FA2AD2002087
:104CE0000FE0B2EE0C0A01A901EBC00181ED000A50
:104CF000BAEE040A01A901EBC00181ED010A411CD1
:104D0000C8B20428EDDB00200EE0B0EE000A6849CE
:104D100001EB801181ED0C0A9FED750A644901EBEE
:104D2000801181ED0D0A401C0828EEDB01A801F07E
:104D300041F955E09FED6D0AF4EEC08AF1EE10FAEC
:104D400031DD9FED6C0AF4EEC08AF1EE10FA2AD242
:104D500000200FE0B2EE0E0A01A901EBC00181EDC7
:104D6000000AB9EE040A01A901EBC00181ED010AB4
:104D7000411CC8B20428EDDB00200EE0B7EE080AA3
:104D80004B4901EB801181ED0C0A9FED590A48490E
:104D900001EB801181ED0D0A401C0828EEDB01A813
:104DA00001F008F91CE09FED530AF4EEC08AF1EE21
:104DB00010FA15DD0820FCF71FFA00200EE0B7EE10
:104DC000000A3B4901EB801181ED0C0A1FEDD90A65
:104DD000374901EB801181ED0D0A401C0828EEDBFC
:104DE00000BF9FED440AF4EEC08AF1EE10FA7FF6A0
:104DF000F6AEC82005F00EFF00200EE09FED390A48
:104E00002B4901EB801181ED0C0A9FED3B0A2849EB
:104E100001EB801181ED0D0A401C0828EEDB32E326
:104E2000284800780E28FAD19FED270AB0EE40CA34
:104E30009FED320AF0EE40CA9FED240AB0EE40DA50
:104E40009FED220AF0EE40DA9FED2C0AB0EE40EA28
:104E50009FED2B0AF0EE40EA9FED2A0AB0EE40FAF1
:104E60009FED280AF0EE40FA0120274908709FEDD7
:104E7000180AB0EE409A9FED160AF0EE409A9FEDA8
:104E8000140AF0EE408ADCE22048B0F90000B0F5E8
:104E9000C86F04DD01F01CFB0820FCF7ADF91C48CD
:104EA000D0ED000AB0EE600AFFF7FEF832E0000035
:104EB000D0530020999959409A99993E7F6ABC3CF9
:104EC0006666C63FF4050020CDCC4C3FCDCC4C3EB1
:104ED0000000000004D3000800007A44A40600206B
:104EE00000000842CDCC4C408FC2F53D6666A63F1F
:104EF0000AD7A33D6666E63FEC51B83D9A99193E44
:104F0000666666406666663FA9060020425F00202E
:104F100058610020B0EE409AFD48D0ED000AB0EE96
:104F2000600AFFF7A9F8F0EE409A2022F94901A89B
:104F3000FBF7EBF9FDF7A2FB00EE100AF8EE400AD2
:104F40001FED1B1A80EE810AF348D0ED000A1FED19
:104F50001E1AC0EE811A30EE610AF0EE408A1FED93
:104F6000260AF4EEC08AF1EE10FA16D200200EE006
:104F7000B0EE000AE94901EB801181ED0C0A1FED4A
:104F80002D0AE64901EB801181ED0D0A401C08282D
:104F9000EEDB01A801F00EF852E21FED350AF4EE47
:104FA000C08AF1EE10FA4FDB9FEDDD0AF4EEC08A05
:104FB000F1EE10FA48D200202DE0012801D003289C
:104FC0000ED19FEDD80A01A901EBC00181ED000AC5
:104FD000B8EE080A01A901EBC00181ED010A18E051
:104FE000B2EE0E0A01A901EBC00181ED000AC84929
:104FF000D1ED000ABFEE001AB2EE040A10EE810AEB
:10500000F0EE000A80EE201A01A901EBC00181ED4B
:10501000011A411CC8B20428CFDB00200EE09FED2E
:10502000C20ABE4901EB801181ED0C0A1FED500A46
:10503000BA4901EB801181ED0D0A401C0828EEDB16
:1050400001A800F0B7FFFBE1B14890ED000ADFEDE9
:10505000B70AB4EEE00AF1EE10FA08D890ED000AB3
:10506000DFEDB30AB4EEE00AF1EE10FA0DDA9FEDCF
:10507000AC0AF4EEC08AF1EE10FA4FDB9FEDAD0AF8
:10508000F4EEC08AF1EE10FA48D200202DE001289B
:1050900001D003280ED19FEDA80A01A901EBC001A0
:1050A00081ED000A9FEDA50A01A901EBC00181ED88
:1050B000010A18E0B2EE0A0A01A901EBC00181ED74
:1050C000000A9349D1ED000ABFEE001AB2EE040ABD
:1050D00010EE810AF0EE000A80EE201A01A901EB21
:1050E000C00181ED011A411CC8B20428CFDB0020A9
:1050F0000EE0B0EE080A894901EB801181ED0C0A3F
:105100009FED8F0A854901EB801181ED0D0A401C4E
:105110000828EEDB01A800F04DFF91E19FED850A24
:10512000F4EEC08AF1EE10FA06DD9FED860AF4EE89
:10513000C08AF1EE10FA12D3754890ED000ADFED47
:10514000820AB4EEE00AF1EE10FA56D290ED000AAF
:10515000DFED7E0AB4EEE00AF1EE10FA4DDD00203C
:1051600032E0012801D0032816D1B3EE040A01A9C8
:1051700001EBC00181ED000AF1EE690AB0EE001A00
:1051800080EE810AF1EE040A30EE600A01A901EB1B
:10519000C00181ED010A15E09FED6D0A01A901EB47
:1051A000C00181ED000AF1EE490AB0EE001A80EE6E
:1051B000810AF1EE0C0A30EE200A01A901EBC001D0
:1051C00081ED010A411CC8B20428CADB00200EE0B0
:1051D0009FED550A514901EB801181ED0C0A1FED3D
:1051E000BC0A4E4901EB801181ED0D0A401C0828D4
:1051F000EEDB01A800F0DEFE22E19FED520AF4EEA4
:10520000C08AF1EE10FA06DBB0EE020AF4EEC08AB4
:10521000F1EE10FA12D33E4890ED000ADFED4D0A90
:10522000B4EEE00AF1EE10FA56DD90ED000ADFED83
:105230004A0AB4EEE00AF1EE10FA4DD2002032E054
:10524000012801D0032816D1B3EE060A01A901EB0B
:10525000C00181ED000AF1EE690AB0EE001A80EE9D
:10526000810AF3EE040A30EE200A01A901EBC00125
:1052700081ED010A15E0B3EE010A01A901EBC001BD
:1052800081ED000AF1EE490AB0EE001A80EE810AC3
:10529000F1EE040A30EE600A01A901EBC00181EDD4
:1052A000010A411CC8B20428CADB00200EE0B0EE9F
:1052B0000C0A1A4901EB801181ED0C0A1FEDF60A68
:1052C000164901EB801181ED0D0A401C0828EEDB28
:1052D00001A800F06FFEB3E0B0EE020AF4EEC08A5F
:1052E000F1EE10FA06DB9FED1D0AF4EEC08AF1EE36
:1052F00010FA3CD3064890ED000AF3EE040AB4EE2F
:10530000E00AF1EE10FA7EDD90ED000A28E00000E0
:105310005861002024D30008A4060020D0530020A8
:105320003433733F0000204266668640000070C23E
:105330000000B4C23433933F00000042000034C286
:10534000CDCCCC3DCECCAC3F0000C8C2000002C3E7
:10535000000018420000F042000034439A9949408E
:10536000DFED4B0AB4EEE00AF1EE10FA4BD8002064
:105370002FE0012801D0032817D1B3EE060A01A9B6
:1053800001EBC00181ED000AB1EE690AF0EE000AFE
:1053900080EE201AB3EE040A31EE000A01A901EBF7
:1053A000C00181ED010A12E06DE0B3EE040A01A92B
:1053B00001EBC00181ED000AB1EE490AF0EE000AEE
:1053C00080EE201A01A901EBC00181ED011A411CF8
:1053D000C8B20428CDDB00200EE09FED2E0A2E4936
:1053E00001EB801181ED0C0A9FED2C0A2A4901EB9B
:1053F000801181ED0D0A401C0828EEDB01A800F0A9
:10540000D9FD1DE0FFE71FED2B0AF4EEC08AF1EE97
:1054100010FA15DD0820FBF7EFFE00200EE09FEDEF
:10542000200A1D4901EB801181ED0C0A9FED1B0A3A
:10543000194901EB801181ED0D0A401C0828EEDBB3
:1054400000BF1FED3A0AF4EEC08AF1EE10FA7FF6C3
:105450001BADC82005F0DEFB00200EE0B7EE000A11
:105460000D4901EB801181ED0C0A9FED0E0A0A49EE
:1054700001EB801181ED0D0A401C0828EEDB0020B5
:105480000949087000BF09B0BDEC108B00BD0000D9
:10549000000070429A99193FD05300208FC2F53C0A
:1054A0009A99993EA69B443CA906002017E00C4817
:1054B000007828B90A480078401C094908700AE0B9
:1054C000FDF7DCF800EE100AB8EE400A054880ED62
:1054D000000AFEF781FE0448006805F060FCE6E77C
:1054E000A8060020A4060020100000202DE9F041AD
:1054F0000446607905F04CFA05460026276808E066
:10550000701CC6B20B2E04D1284604F0CFFDBDE8B6
:10551000F081B85D8028F3D16079821BB9192846E3
:10552000FAF7F3FE66B1002000BF06E0395C62794D
:10553000921B0244A954411CC8B2B042F6DB00BF22
:105540000A212846FBF784FBA97A884203D0284623
:1055500004F0ACFDDBE7E87830382449484329798A
:10556000303940F2712211FB02F100EB0111687930
:10557000303800EB4002C2EBC01001EBC001E8790B
:10558000303800EBC00202EB001001EB8001287AFA
:10559000303800EB800001EB4001687A3038084475
:1055A00000EE100AB8EEC00A84ED020A94ED020A79
:1055B000DFED0F0AB4EEE00AF1EE10FA06DC94ED2E
:1055C000020AB5EEC00AF1EE10FA04D2094890EDD5
:1055D000000A84ED020A94ED020A064880ED000AF2
:1055E000284604F063FD00BF91E70000A08601009B
:1055F00000401C46DC0000202DE9F04104460F4627
:1056000015461E462760257166710422024903482B
:10561000FEF7D8FCBDE8F081E4000020C0060020C1
:1056200008B500BF002000902248006840F4001038
:10563000204908600846006800F40010009000BF90
:1056400000BF00BF002000900846006840F48000C2
:1056500008600846006800F48000009000BF00BFAA
:10566000002205213A20FDF7B9F83A20FDF7A6F807
:10567000002205210C20FDF7B1F80C20FDF79EF863
:10568000002205210D20FDF7A9F80D20FDF796F861
:10569000002205210E20FDF7A1F80E20FDF78EF85F
:1056A000002205210F20FDF799F80F20FDF786F85D
:1056B00008BD00003038024010B5194A00211948D1
:1056C00005F0FEFA18490860184A0021184805F04C
:1056D000F7FA18490860184A0021184805F0F0FA4E
:1056E00017490860174A0021174805F0E9FA1749D9
:1056F0000860174A0021174805F0E2FA16490860C9
:10570000164A0021164805F0DBFA16490860164AC9
:105710000021164805F0D4FA1549086010BD0000B4
:1057200068CF0008950A0008000000208CCF000810
:105730000964000804000020B0CF00089D5B000849
:10574000080000201CD00008496100081400002057
:10575000D4CF0008516500080C000020F8CF0008E5
:10576000AD5400081000002040D000080963000874
:105770001800002000B587B0142102A8FAF7DEFD5A
:1057800000BF002001906648006840F04000644976
:1057900008600846006800F04000019000BF00BFAC
:1057A00000BF002001900846006840F0010008603A
:1057B0000846006800F00100019000BF00BF00BF74
:1057C000002001900846006840F01000086008467C
:1057D000006800F01000019000BF00BF00BF002073
:1057E00001900846006840F0020008600846006822
:1057F00000F00200019000BF00BF00BF0020019038
:105800000846006840F0040008600846006800F0A0
:105810000400019000BF00BF00BF002001900846B7
:10582000006840F0800008600846006800F08000D2
:10583000019000BF00BF00BF002001900846006833
:1058400040F0080008600846006800F00800019079
:1058500000BF00BF00BF002001900846006840F470
:10586000807008600846006800F48070019000BFF6
:1058700000BF002240212B48FCF7FAFE0022042141
:105880002948FCF7F5FE012211032648FCF7F0FE3B
:105890004FF4825002900120039000200490059064
:1058A00002A92048FCF7DEFD0420029001200390AD
:1058B00000200490059002A91B48FCF7D3FD4FF48B
:1058C0007040029000200390012004900320059076
:1058D00002A91648FCF7C6FD4FF440600290002074
:1058E0000390012004900020059002A91048FCF7C5
:1058F000B9FD802002900020039001200490002038
:10590000059002A90B48FCF7ADFD0820029000208D
:105910000390049002A90848FCF7A4FD07B000BD5D
:10592000303802400010024000180240000C0240D3
:10593000001C0240002002400000024010B50D484B
:105940000D4908604FF41650486000210A488160F4
:10595000C16001610C21416100218161C161FDF7DC
:1059600041FF08B1FCF7FEFA0B2204490248FEF79A
:105970004FFA10BD004C0040C0060020685F0020B8
:1059800010B50D480D4908604FF4165048600021CD
:105990000A488160C16001610C214161002181617F
:1059A000C161FDF71FFF08B1FCF7DCFA06220449CC
:1059B0000248FEF72DFA10BD0078004004070020D1
:1059C000E900002010B50A480A4908600A48486002
:1059D000002108488160C16001610C214161002102
:1059E0008161C161FDF7FEFE08B1FCF7BBFA10BD95
:1059F000001401408C07002000093D0000BFFEE7B5
:105A000010B588B000202DE0411C594A02EB8012ED
:105A100011840121564A02EB801251849FED550AF0
:105A2000534901EB801181ED090A9FED520A50495B
:105A300001EB801181ED0A0A9FED4E0A4C4901EB02
:105A4000801181ED0B0A9FED4B0A494901EB801152
:105A500081ED0C0A9FED470A454901EB801181ED6C
:105A60000D0A401C0828CFDB202243496846FAF77C
:105A70004CFC00240BE004EBC40101EB04113F4A91
:105A800002EB8100694600F079FA601CC4B2082C70
:105A9000F1DB42F6E06004904FF4FA6005909FED70
:105AA000380A8DED000A9FED370A8DED010A0024BA
:105AB0000BE004EBC40101EB0411334A02EB81005B
:105AC000694600F05BFA601CC4B2082CF1DB42F2BC
:105AD0001070049000200590B2EE040A8DED000ACB
